:100000000C9434000C9451000C9451000C94510049
:100010000C9451000C9451000C9451000C9451001C
:100020000C9451000C94CE000C9451000C9451008F
:100030000C9451000C9451000C9451000C945100FC
:100040000C9451000C9451000C9451000C945100EC
:100050000C9451000C9451000C9451000C945100DC
:100060000C9451000C94510011241FBECFEFD8E026
:10007000DEBFCDBF12E0A0E0B1E0EEE4F6E002C0EA
:1000800005900D92A233B107D9F712E0A2E3B2E0D6
:1000900001C01D92A733B107E1F70E9453000C94F1
:1000A00025030C940000539A259A15B883E2809397
:1000B000B00081E08093B100809370007894C12CEF
:1000C000D12C760111E08FEFC81AD80AE80AF80A95
:1000D000C11484EBD80684ECE80684E0F80698F3B3
:1000E000F89480913202813019F41092320202C0E9
:1000F00010933202E0913202F0E0EE0FFF1FE05069
:10010000FF4FC081C0932801D0E060912A01709117
:100110002B0180E090E00E9434024B015C01FE0163
:10012000EE0FFF1FEE0FFF1FEC5FFE4F20813181AE
:1001300042815381C501B4010E94C2020E9408029B
:1001400060932E0170932F018093300190933101C1
:1001500060912C0170912D0180E090E00E943402AA
:100160002B013C01CC0FDD1FC45EDE4F688179811D
:1001700080E090E00E9434029B01AC01C301B20117
:100180000E94C202A50194010E94A0010E940802DF
:100190007093340260933302789495CF1F920F923C
:1001A0000FB60F9211248F929F92AF92BF92CF926F
:1001B000DF92EF92FF922F933F934F935F936F9352
:1001C0007F938F939F93AF93BF93CF93DF93EF93DF
:1001D000FF9380912901882309F497C0F8948091B6
:1001E0002E0190912F01A0913001B0913101019722
:1001F000A109B10980932E0190932F01A0933001A2
:10020000B093310180912E0190912F01A091300186
:10021000B0913101892B8A2B8B2B09F05CC0809126
:1002200028018F5F80932801E0913202F0E0EE0F09
:10023000FF1FE050FF4F9181981718F48081809341
:100240002801C0912801D0E060912A0170912B0112
:1002500080E090E00E9434026B017C01FE01EE0F11
:10026000FF1FEE0FFF1FEC5FFE4F208131814281A7
:100270005381C701B6010E94C2020E940802609326
:100280002E0170932F018093300190933101609182
:100290002C0170912D0180E090E00E9434024B010E
:1002A0005C01CC0FDD1FC45EDE4F6881798180E088
:1002B00090E00E9434029B01AC01C501B4010E9490
:1002C000C202A70196010E94A0010E940802709339
:1002D0003402609333028091330290913402209172
:1002E000350230913602820F931F9093360280932D
:1002F0003502E0913502F0913602EF2FFF27EE5CD8
:10030000FE4F80818093B4007894FF91EF91DF914C
:10031000CF91BF91AF919F918F917F916F915F919D
:100320004F913F912F91FF90EF90DF90CF90BF9032
:10033000AF909F908F900F900FBE0F901F901895C9
:100340000CD0E6C0DED040F0D5D030F021F45F3FD5
:1003500019F0C7C0511110C1CAC0EBD098F399234E
:10036000C9F35523B1F3951B550BBB27AA27621779
:100370007307840738F09F5F5F4F220F331F441FBE
:10038000AA1FA9F333D00E2E3AF0E0E830D09150F6
:100390005040E695001CCAF729D0FE2F27D0660FE3
:1003A000771F881FBB1F261737074807AB07B0E822
:1003B00009F0BB0B802DBF01FF2793585F4F2AF038
:1003C0009E3F510568F08DC0D7C05F3FECF3983E6B
:1003D000DCF3869577956795B795F7959F5FC9F795
:1003E000880F911D9695879597F90895E1E0660F1E
:1003F000771F881FBB1F621773078407BA0720F097
:10040000621B730B840BBA0BEE1F88F7E0950895FF
:1004100098D088F09F5790F0B92F9927B751A0F046
:10042000D1F0660F771F881F991F1AF0BA95C9F788
:1004300012C0B13081F09FD0B1E008959CC0672F09
:10044000782F8827B85F39F0B93FCCF38695779538
:100450006795B395D9F73EF4909580957095619521
:100460007F4F8F4F9F4F0895E89409C097FB3EF44C
:1004700090958095709561957F4F8F4F9F4F9923F1
:10048000A9F0F92F96E9BB279395F695879577956F
:100490006795B795F111F8CFFAF4BB0F11F460FF2F
:1004A0001BC06F5F7F4F8F4F9F4F16C0882311F087
:1004B00096E911C0772321F09EE8872F762F05C09B
:1004C000662371F096E8862F70E060E02AF09A9536
:1004D000660F771F881FDAF7880F9695879597F92B
:1004E000089597F99F6780E870E060E008959FEFB6
:1004F00080EC089500240A941616170618060906BB
:10050000089500240A941216130614060506089589
:10051000092E0394000C11F4882352F0BB0F40F411
:10052000BF2B11F460FF04C06F5F7F4F8F4F9F4F51
:10053000089557FD9058440F551F59F05F3F71F0D3
:100540004795880F97FB991F61F09F3F79F087953A
:100550000895121613061406551FF2CF4695F1DFC3
:1005600008C0161617061806991FF1CF8695710553
:10057000610508940895E894BB2766277727CB0187
:1005800097F908950BD0C4CFB5DF28F0BADF18F083
:10059000952309F0A6CFABCF1124EECFCADFA0F38D
:1005A000959FD1F3950F50E0551F629FF001729F08
:1005B000BB27F00DB11D639FAA27F00DB11DAA1F27
:1005C000649F6627B00DA11D661F829F2227B00D74
:1005D000A11D621F739FB00DA11D621F839FA00DFF
:1005E000611D221F749F3327A00D611D231F849F4F
:1005F000600D211D822F762F6A2F11249F575040A6
:100600008AF0E1F088234AF0EE0FFF1FBB1F661F40
:10061000771F881F91505040A9F79E3F510570F0F9
:1006200060CFAACF5F3FECF3983EDCF386957795D9
:100630006795B795F795E7959F5FC1F7FE2B880FF4
:0E064000911D9695879597F90895F894FFCF30
:10064E00000101050000003E0000003E0000803E5B
:10065E000000803E0000803E0000803EDC05000071
:10066E00D0070000DC050000010124F4FFFF0100AB
:10067E000000808386898C909396999C9FA2A5A852
:10068E00ABAEB1B3B6B9BCBFC1C4C7C9CCCED1D362
:10069E00D5D8DADCDEE0E2E4E6E8EAEBEDEFF0F105
:1006AE00F3F4F5F6F8F9FAFAFBFCFDFDFEFEFEFF9B
:1006BE00FFFFFFFFFFFFFEFEFEFDFDFCFBFAFAF95A
:1006CE00F8F6F5F4F3F1F0EFEDEBEAE8E6E4E2E04C
:1006DE00DEDCDAD8D5D3D1CECCC9C7C4C1BFBCB944
:1006EE00B6B3B1AEABA8A5A29F9C999693908C89F8
:1006FE008683807D7A7774706D6A6764615E5B58FD
:10070E0055524F4D4A4744413F3C393734322F2DD5
:10071E002B28262422201E1C1A1816151311100F12
:10072E000D0C0B0A0807060605040303020202015C
:10073E00010101010101020202030304050606077D
:10074E00080A0B0C0D0F1011131516181A1C1E206B
:10075E00222426282B2D2F323437393C3F41444753
:10076E004A4D4F5255585B5E6164676A6D7074777F
:02077E007A7D82
:00000001FF
